:100000000C9446000C9463000C9463000C94630001
:100010000C9463000C9463000C9463000C946300D4
:100020000C9463000C9463000C9463000C946300C4
:100030000C9463000C9463000C9463000C946300B4
:100040000C9463000C9463000C949A000C9463006D
:100050000C9463000C9463000C9463000C94630094
:100060000C9463000C9463000C9463000C94630084
:100070000C9463000C9463000C9463000C94630074
:100080000C9463000C9463000C94630011241FBE55
:10009000CFEFD0E1DEBFCDBF11E0A0E0B1E0E2EDF7
:1000A000F1E002C005900D92A031B107D9F721E02F
:1000B000A0E1B1E001C01D92A235B207E1F70E94B4
:1000C000C7000C94E7000C9400001092900087E6A3
:1000D00089B98AB188698AB9E5E9F0E080818660EA
:1000E000808378940895882319F05D9BFECF8CB9A6
:1000F0000895CF93DF93EC018991882319F00E9432
:100100007300FACFDF91CF910895E09110018091B3
:1001100011018E1769F091E09E0F90931001F0E0AD
:10012000EE5EFE4F8081903420F010921001089511
:1001300080E008951F920F920FB60F9211248F93B3
:100140009F93EF93FF93F894E0911101F0E08CB14D
:10015000EE5EFE4F8083AD9880911101E82FF0E0B4
:10016000EE5EFE4F9081992341F08F5F803418F44A
:100170008093110102C0109211017894FF91EF91C8
:100180009F918F910F900FBE0F901F9018958FEF3A
:1001900084BB85BB0E9465002FEF33ED80E32150C7
:1001A00030408040E1F700C0000080E091E00E9414
:1001B00079000E9485009FEF29EF30E091502040A8
:1001C0003040E1F700C000000E947300F2CFF894C5
:0201D000FFCF5F
:1001D20048656C6C6F20576F726C64210D0A0000C9
:00000001FF
