:100000000C9446000C9463000C9463000C94630001
:100010000C9463000C9463000C9463000C946300D4
:100020000C9463000C9463000C9463000C946300C4
:100030000C9463000C9463000C9463000C946300B4
:100040000C9463000C9463000C94E8000C9463001F
:100050000C9463000C9463000C9463000C94630094
:100060000C9463000C9463000C9463000C94630084
:100070000C9463000C9463000C9463000C94630074
:100080000C9463000C9463000C94630011241FBE55
:10009000CFEFD0E1DEBFCDBF11E0A0E0B1E0E4EDF5
:1000A000F2E002C005900D92AE30B107D9F721E021
:1000B000AEE0B1E001C01D92A035B207E1F70E94A9
:1000C00015010C9468010C9400001092900087E6D2
:1000D00089B98AB188698AB9E5E9F0E080818660EA
:1000E000808378940895882319F05D9BFECF8CB9A6
:1000F0000895CF93DF93EC018991882319F00E9432
:100100007300FACFDF91CF910895E0910E018091B5
:100110000F018E1769F091E09E0F90930E01F0E0B1
:10012000E05FFE4F8081903420F010920E01089520
:1001300080E00895DA9A2FEF89EF90E02150804017
:100140009040E1F700C00000DA982FEF89EF90E0CF
:10015000215080409040E1F700C000000895CF9307
:10016000C82F807F8BBBD8980E949A00C295C07F11
:10017000CBBBD898CF910C949A0088E20E94AF0034
:10018000D8980C949A00CF93C82F807F8BBBD89AB5
:100190000E949A00C295C07FCBBBD89ACF910C9495
:1001A0009A00CF93DF93EC018991882319F00E9484
:1001B000C300FACFDF91CF910895009711F480E842
:1001C00004C0019721F4862F806C0C94AF00089531
:1001D0001F920F920FB60F9211248F939F93EF935C
:1001E000FF93F894E0910F01F0E08CB1E05FFE4FD7
:1001F0008083AD9880910F01E82FF0E0E05FFE4F23
:100200009081992341F08F5F803418F480930F011F
:1002100002C010920F017894FF91EF919F918F91FE
:100220000F900FBE0F901F901895CFEFC4BBC5BBAA
:100230000E9465002FEF83ED90E3215080409040B5
:10024000E1F700C0000080E091E00E947900C4BBAB
:10025000C5BBCABB0E94BD0084E10E94AF0086E01E
:100260000E94AF008FE00E94AF0081E00E94AF00CB
:1002700080E80E94AF0081E00E94AF000E948500EC
:10028000C82F2FEF89EF90E0215080409040E1F798
:1002900000C000008C2F0E9473008C2F8F7D815432
:1002A0008A3130F080ED8C0F8A3010F0C03219F4B2
:1002B0008C2F0E94C30088E10E94AF002FEF84E3DF
:1002C0009CE0215080409040E1F700C00000D6CF74
:0402D000F894FFCFD0
:0E02D4005541525420544F204C43440D0A0013
:00000001FF
