S00B00004144432E7372656351
S11300000C9446000C9450000C9450000C94500036
S11300100C9450000C9450000C9450000C9450001C
S11300200C9450000C9450000C9450000C9450000C
S11300300C9450000C9450000C9450000C945000FC
S11300400C9450000C9450000C9450000C945000EC
S11300500C9450000C9462000C9450000C945000CA
S11300600C9450000C9450000C9450000C945000CC
S11300700C9450000C9450000C9450000C945000BC
S11300800C9450000C9450000C94500011241FBE8A
S1130090CFEFD0E1DEBFCDBF0E945B000C947200B5
S11300A00C94000087B1806687B986B18F6886B9E1
S11300B0369A789408958FEF84BB85BB0E945200D2
S11300C0369AFECF1F920F920FB60F9211248F9380
S11300D085B1809585BB349A8F910F900FBE0F9098
S10B00E01F901895F894FFCF5E
S9030000FC
