:100000000C9446000C945B000C945B000C945B0019
:100010000C945B000C945B000C945B000C945B00F4
:100020000C945B000C945B000C945B000C945B00E4
:100030000C945B000C945B000C945B000C945B00D4
:100040000C945B000C945B000C945B000C945B00C4
:100050000C945B000C945B000C945B000C945B00B4
:100060000C945B000C945B000C945B000C945B00A4
:100070000C945B000C945B000C945B000C945B0094
:100080000C945B000C945B000C945B0011241FBE6D
:10009000CFEFD0E1DEBFCDBF11E0A0E0B1E0EAEBF1
:1000A000F1E002C005900D92A632B107D9F70E9487
:1000B000AB000C94DB000C940000DA9A2FEF89EF70
:1000C00090E0215080409040E1F700C00000DA98B5
:1000D0002FEF89EF90E0215080409040E1F700C081
:1000E00000000895CF93C82F807F8BBBD8980E94C3
:1000F0005D00C295C07FCBBBD898CF910C945D00BA
:1001000088E20E947200D8980C945D00CF93C82FAB
:10011000807F8BBBD89A0E945D00C295C07FCBBB0D
:10012000D89ACF910C945D00CF93DF93EC01899125
:10013000882319F00E948600FACFDF91CF910895AD
:10014000009711F480E804C0019721F4862F806C99
:100150000C94720008958FEF84BB85BB8ABB0E940C
:10016000800084E10E94720086E00E9472008FE0AD
:100170000E94720081E00E94720080E80E9472007A
:1001800081E00E94720080E091E00E94940080EC87
:100190000E9472008EE091E00E94940088E10E942B
:1001A00072002FEF84E39CE0215080409040E1F703
:0A01B00000C00000F3CFF894FFCF69
:1001BA0048656C6C6F204D616E6973682100492037
:1001CA004C6F766520564C53492E20497473206D26
:0601DA00696E652E0000B5
:00000001FF
