S00C0000554152542E73726563DC
S11300000C9446000C9450000C9450000C94500036
S11300100C9450000C9450000C9450000C9450001C
S11300200C9450000C9450000C9450000C9450000C
S11300300C9450000C9450000C9450000C945000FC
S11300400C9450000C9450000C9450000C945000EC
S11300500C9450000C9450000C9450000C945000DC
S11300600C9450000C9450000C9450000C945000CC
S11300700C9450000C9450000C9450000C945000BC
S11300800C9450000C9450000C94500011241FBE8A
S1130090CFEFD0E1DEBFCDBF0E9475000C9491007C
S11300A00C9400001092980087E680939900EAE986
S11300B0F0E0808188618083EDE9F0E08081877CD5
S11300C080838081866080830895EBE9F0E09081ED
S11300D095FFFDCF80939C000895EBE9F0E08081CB
S11300E08823ECF780919C0008950E9452008FEFC2
S11300F081BB85BB81E40E9465008AE00E946500A3
S11301000E946D00C82F2FEF83EC99E021508040AE
S11301109040E1F700C000008C2F0E946500C5BB31
S1090120EFCFF894FFCFBD
S9030000FC
