:100000000C9446000C9463000C9463000C94630001
:100010000C9463000C9463000C9463000C94CF0068
:100020000C94FA000C9463000C9463000C9463002D
:100030000C94AE000C9463000C9463000C94630069
:100040000C9463000C9463000C9463000C946300A4
:100050000C9463000C9463000C9463000C94630094
:100060000C9463000C9463000C9463000C94630084
:100070000C9463000C9463000C9463000C94630074
:100080000C9463000C9463000C94630011241FBE55
:10009000CFEFD0E1DEBFCDBF11E0A0E0B1E0ECE4F6
:1000A000F3E002C005900D92AE32B107D9F721E01E
:1000B000AEE2B1E001C01D92A635B207E1F70E94A1
:1000C00074010C94A4010C9400001092900087E637
:1000D00089B98AB188618AB9E5E9F0E080818660F2
:1000E000808308955D9BFECF8CB90895CF93DF93F5
:1000F000EC018991882319F00E947200FACFDF91F8
:10010000CF9108953E9A86B1876886B90895369A48
:100110002FEF89EF90E0215080409040E1F700C040
:100120000000349BFECF2FEF89EF90E021508040FC
:100130009040E1F700C0000084B195B108951FBC64
:100140001DBC1CBC89EF90E09BBD8ABD8EB58B6049
:100150008EBD87B7806187BF789408951F920F92F4
:100160000FB60F9211248F939F93F8941DBC1CBC63
:1001700080913401909135010196909335018093DF
:1001800034018091340190913501039709F47894FA
:100190009F918F910F900FBE0F901F9018951F92F7
:1001A0000F920FB60F9211242F933F934F935F93AB
:1001B0006F937F938F939F93AF93BF93EF93FF932F
:1001C000F89480E091E00E9476008EB583608EBD49
:1001D0007894FF91EF91BF91AF919F918F917F9113
:1001E0006F915F914F913F912F910F900FBE0F90A4
:1001F0001F9018951F920F920FB60F9211242F93F4
:100200003F934F935F936F937F938F939F93AF939E
:10021000BF93EF93FF93F89481E191E00E94760001
:100220008EB58C7F8EBD7894FF91EF91BF91AF9189
:100230009F918F917F916F915F914F913F912F91FE
:100240000F900FBE0F901F901895DA9A2FEF89EF3D
:1002500090E0215080409040E1F700C00000DA9823
:100260002FEF89EF90E0215080409040E1F700C0EF
:1002700000000895CF93C82F8BB39C2F907F892BBC
:100280008BBBD8980E9425018BB3C295C07FC82B29
:10029000CBBBD898CF910C9425018FEF8ABB88E215
:1002A0000E943A01D8980C942501CF93C82F8BB3A4
:1002B0009C2F907F892B8BBBD89A0E9425018BB3F2
:1002C000C295C07FC82BCBBBD89ACF910C94250187
:1002D000811103C0862F806804C0813021F4862FED
:1002E000806C0C943A0108959FEF94BB82B18F7398
:1002F00082B983B1806C83B995BB81B3806C81BBBB
:1003000082B3806C82BB89B7806C89BF0E94650014
:100310000E949F000E944D0184E10E943A0186E004
:100320000E943A018FE00E943A0181E00E943A0166
:1003300080E80E943A0181E490E00E94550181E248
:0C03400091E00E947600FFCFF894FFCF00
:10034C0045787420496E7420362053746F700D0AF2
:10035C000045787420496E742037204C41500D0AAA
:0E036C000048454C4C4F20554152540D0A009C
:00000001FF
