:100000000C9446000C945B000C945B000C945B0019
:100010000C945B000C945B000C945B000C945B00F4
:100020000C945B000C945B000C945B000C945B00E4
:100030000C945B000C945B000C945B000C945B00D4
:100040000C945B000C945B000C945B000C945B00C4
:100050000C945B000C945B000C945B000C945B00B4
:100060000C945B000C945B000C945B000C945B00A4
:100070000C945B000C945B000C945B000C945B0094
:100080000C945B000C945B000C945B0011241FBE6D
:10009000CFEFD0E1DEBFCDBF11E0A0E0B1E0EAE1FB
:1000A000F3E002C005900D92A634B107D9F70E9483
:1000B0000D010C948B010C9400000F931F9300E032
:1000C00010E0980106171707280739074CF445E098
:1000D0004A95F1F700000F5F1F4F2F4F3F4FF2CFB0
:1000E0001F910F9108958F929F92AF92BF92CF92DE
:1000F000DF92EF92FF920F931F93CF93DF936C01E8
:10010000A8EEB3E09A01AB010E9471014B015C01C2
:100110008601000F111FC0E0D0E00D2C000CEE088E
:10012000FF08CE01A0E0B0E088159905AA05BB053F
:100130006CF4DB9AC701B6010E945D00DB98C70131
:10014000B6010E945D00C00FD11FEBCFDF91CF91B0
:100150001F910F91FF90EF90DF90CF90BF90AF90E5
:100160009F908F9008954F925F926F927F92BF926F
:10017000CF92DF92EF92FF920F931F93CF93DF9373
:10018000CDB7DEB768970FB6F894DEBF0FBECDBF10
:10019000B82E2A013B0188E0E0E0F1E0DE01519653
:1001A00001900D928A95E1F780E1E8E0F1E0DE014F
:1001B000119601900D928A95E1F77E0181E1E80E9A
:1001C000F11C8E010F5F1F4F6E01E9E1CE0ED11CB5
:1001D000F70181917F018B1107C0B301A201F801E2
:1001E000808191810E9473000E5F1F4FEC14FD040B
:1001F00079F768960FB6F894DEBF0FBECDBFDF91DA
:10020000CF911F910F91FF90EF90DF90CF90BF9013
:100210007F906F905F904F900895CF93DF93CDB70D
:10022000DEB7AE970FB6F894DEBF0FBECDBFD39A40
:10023000DB988FEF84BB85BB80E1E6E3F1E0DE0174
:100240005F9601900D928A95E1F78EE1E8E1F1E089
:10025000DE01119601900D928A95E1F75E0187E12A
:10026000A80EB11C88E1E82EFF24F39483B3809597
:1002700085BB6E01EFE1CE0ED11C8E010F5F1F4FCB
:10028000F60181916F01F801803281F480819181C2
:100290008E9DB0018F9D700D9E9D700D1124072EB7
:1002A000000C880B990B0E945D000FC020813181EA
:1002B0002E9DA0012F9D500D3E9D500D1124052E09
:1002C000000C660B770B0E94B3006CE870E080E0D6
:1002D00090E00E945D000E5F1F4F0A151B0581F61E
:1002E000C5CF0E947C01A59F900DB49F900DA49F47
:1002F000800D911D11240895A29FB001B39FC001EC
:10030000A39F700D811D1124911DB29F700D811D41
:0A0310001124911D0895F894FFCF09
:10031A0063646566676162437B07A406EF05980517
:10032A00FB047004F603BC03010001000100010094
:10033A0001000100020001000100010001000100AA
:10034A0001000200040063636767616167666665AE
:06035A00656464632000ED
:00000001FF
