:100000000C9446000C9463000C9463000C94630001
:100010000C9463000C9463000C9463000C946300D4
:100020000C9463000C9463000C9463000C946300C4
:100030000C9463000C9463000C9463000C946300B4
:100040000C9463000C9463000C9463000C946300A4
:100050000C9463000C9463000C9463000C94630094
:100060000C9463000C9463000C9463000C94630084
:100070000C9463000C9463000C9463000C94630074
:100080000C9463000C9463000C94630011241FBE55
:10009000CFEFD0E1DEBFCDBF11E0A0E0B1E0E8EFEF
:1000A000F1E002C005900D92AA35B107D9F721E021
:1000B000AAE5B1E001C01D92AE38B207E1F70E9497
:1000C000B0000C94FA000C9400001092980087E69F
:1000D00080939900EAE9F0E0808188618083EDE90E
:1000E000F0E08081856080830895882331F09091CD
:1000F0009B0095FFFCCF80939C00089580919B000E
:1001000087FFFCCF80919C000895CF93DF93EC0193
:100110008991882319F00E947500FACFDF91CF9161
:100120000895EF92FF920F931F93CF93DF93EC010B
:100130007B018C010E947E008D3051F098012C1BB8
:100140003D0B2E153F0524F4F80181938F01F2CF6A
:10015000CE01DF91CF911F910F91FF90EF90089505
:100160008FEF84BB85BB0E94650080E091E00E9418
:10017000850088E191E00E9485006AE070E08AE5F0
:1001800091E00E94910084E291E00E9485006AE083
:1001900070E084E691E00E9491006AE571E080E3FE
:1001A00091E00E94F1000097F1F764E671E085E3C9
:1001B00091E00E94F100892B81F78DE391E00E948C
:1001C000850060E270E08EE691E00E94910060E5BB
:1001D00071E08EE691E00E94F100892BF1F615BAEC
:1001E000DCCFFB01DC018D91019080190110D9F366
:0801F000990B0895F894FFCF6C
:1001F80057656C636F6D6520746F20536D61727401
:1002080020486F6D650D0A00557365726E616D65E6
:100218003A0D0A0050617373776F72643A0D0A00E1
:10022800434441430041435453313233004C6F67D8
:10023800696E205375636365737366756C0D0A0088
:0A0248004C49474854204F4E000077
:00000001FF
