:100000000C9446000C9463000C9463000C94630001
:100010000C9463000C9463000C9463000C946300D4
:100020000C9463000C9463000C9463000C946300C4
:100030000C9463000C9463000C9463000C946300B4
:100040000C9463000C9463000C9463000C946300A4
:100050000C9463000C9463000C9463000C94630094
:100060000C9463000C9463000C9463000C94630084
:100070000C9463000C9463000C94C4000C94630013
:100080000C9463000C9463000C94630011241FBE55
:10009000CFEFD0E1DEBFCDBF11E0A0E0B1E0E8EEF0
:1000A000F1E002C005900D92A031B107D9F721E02F
:1000B000A0E1B1E001C01D92A235B207E1F70E94B4
:1000C000A4000C94F2000C9400001092980087E6B3
:1000D00080939900EAE9F0E0808188698083EDE906
:1000E000F0E080818660808378940895882339F0D9
:1000F000EBE9F0E0908195FFFDCF80939C0008959F
:10010000CF93DF93EC018881882331F021960E9400
:10011000760089918111FBCFDF91CF910895E09115
:100120001001809111018E1769F091E09E0F90935C
:100130001001F0E0EE5EFE4F8081903420F01092CE
:100140001001089580E008958FEF84BB85BB0E9465
:1001500065002FEF33ED80E3215030408040E1F720
:1001600000C0000080E091E00E9480000E948F00AB
:100170009FEF29EF30E0915020403040E1F700C080
:1001800000000E947600F2CF1F920F920FB60F92DE
:1001900011248F939F93EF93FF93F894E0911101B3
:1001A000F0E080919C00EE5EFE4F8083AD988091E0
:1001B0001101E82FF0E0EE5EFE4F9081992341F0AF
:1001C0008F5F803418F48093110102C010921101E6
:1001D0007894FF91EF919F918F910F900FBE0F90A8
:0801E0001F901895F894FFCF61
:1001E80048656C6C6F20576F726C64210D0A0000B3
:00000001FF
