:100000000C94C3000C94E0000C94E0000C94E0000D
:100010000C94E0000C94E0000C94E0000C94E000E0
:100020000C94E0000C94E0000C94E0000C94E000D0
:100030000C94E0000C94E0000C94E0000C94E000C0
:100040000C94E0000C94E0000C94E0000C94E000B0
:100050000C94E0000C94E0000C94E0000C94E000A0
:100060000C94E0000C94E0000C94E0000C94E00090
:100070000C94E0000C94E0000C94E0000C94E00080
:100080000C94E0000C94E0000C94E00000407A1026
:10009000F35A00A0724E18090010A5D4E80000E839
:1000A0007648170000E40B54020000CA9A3B000097
:1000B00000E1F505000080969800000040420F0026
:1000C0000000A08601000000102700000000E803E7
:1000D000000000006400000000000A0000000000B2
:1000E0000100000000002C76D888DC674F0823DF71
:1000F000C1DFAE59E1B1B796E5E3E453C63AE65144
:10010000997696E8E6C28426EB898C9B62ED407C6A
:100110006FFCEFBC9C9F40F2BAA56FA5F490055A06
:100120002AF75C936B6CF9676DC11BFCE0E40D472B
:10013000FEF520E6B500D0ED902E0300943577054E
:100140000080841E080000204E0A000000C80C3306
:100150003333330F986E12831141EF8D2114893B95
:10016000E65516CFFEE6DB18D1844B381BF77C1D15
:10017000901DA4BBE424203284725E228100C9F168
:1001800024ECA1E53D2711241FBECFEFD0E1DEBF57
:10019000CDBF11E0A0E0B1E0E2E3FCE002C00590D9
:1001A0000D92AE38B107D9F722E0AEE8B1E001C058
:1001B0001D92A833B207E1F70E9424010C941706A0
:1001C0000C9400001092900087E689B98AB1886982
:1001D0008AB9E5E9F0E0808185608083089588230D
:1001E00019F05D9BFECF8CB908955F9BFECF8CB15B
:1001F0000895CF93DF93EC018991882319F00E9431
:10020000EF00FACFDF91CF910895EF92FF920F9315
:100210001F93CF93DF93EC017B018C010E94F500CB
:100220008D3051F098012C1B3D0B2E153F0524F409
:10023000F80181938F01F2CFCE01DF91CF911F9111
:100240000F91FF90EF900895CF93DF93CDB7DEB776
:10025000A0970FB6F894DEBF0FBECDBF8FEF84BB63
:1002600085BB0E94E2008EE891E00E94F900A12C7B
:10027000B12CCE0101967C0180E2D82E80E091E085
:100280000E94F90083E191E00E94F9000E94F500CC
:10029000823309F473C06CF5813309F0DCC089E561
:1002A00091E00E94F90060E270E0C7010E94050140
:1002B000C7010E9453038C01F7018D2D11928A957D
:1002C000E9F781E691E00E94F90060E270E0C70181
:1002D0000E940501C7010E9453035C01F7018D2DA7
:1002E00011928A95E9F74AE0B701C8018A0D9B1D72
:1002F00071C0833309F481C0843309F0ACC089E54F
:1003000091E00E94F90060E270E0C7010E940501DF
:10031000C7010E9453038C01F7018D2D11928A951C
:10032000E9F781E691E00E94F90060E270E0C70120
:100330000E940501C7010E9453035C01F7018D2D46
:1003400011928A95E9F7B801110F880B990B0E9459
:10035000A7022B013C01B5010B2C000C880B990B5B
:100360000E94A7029B01AC01C301B2010E943302AB
:10037000870123E047E00E9433032EC089E591E026
:100380000E94F90060E270E0C7010E940501C70108
:100390000E9453038C01F7018D2D11928A95E9F784
:1003A0004AE0B701C8018A199B090E94710360E203
:1003B00070E0C7010E940501C7010E9453035C0160
:1003C000F7018D2D11928A95E9F74AE0B701C8012E
:1003D0008A199B090E94710389E691E00E94F90045
:1003E000C7010E94F9008EE591E00E94F900F70133
:1003F0008D2D11928A95E9F732C089E591E00E942E
:10040000F90060E270E0C7010E940501C7010E9487
:1004100053038C01F7018D2D11928A95E9F781E63E
:1004200091E00E94F90060E270E0C7010E940501BE
:10043000C7010E9453035C01F7018D2D11928A952B
:10044000E9F74AE0B7010A9DC0010B9D900D1A9D86
:10045000900D1124BFCF83E791E00E94F90083B390
:10046000809585BB0BCF0E9447020C94F9020E9435
:10047000F20258F00E94EB0240F029F45F3F29F0AD
:100480000C94E20251110C942D030C94E8020E948A
:100490000A0368F39923B1F3552391F3951B550B88
:1004A000BB27AA2762177307840738F09F5F5F4F47
:1004B000220F331F441FAA1FA9F335D00E2E3AF086
:1004C000E0E832D091505040E695001CCAF72BD09E
:1004D000FE2F29D0660F771F881FBB1F26173707EF
:1004E0004807AB07B0E809F0BB0B802DBF01FF2721
:1004F00093585F4F3AF09E3F510578F00C94E2021A
:100500000C942D035F3FE4F3983ED4F386957795E2
:100510006795B795F7959F5FC9F7880F911D9695D9
:10052000879597F90895E1E0660F771F881FBB1F35
:10053000621773078407BA0720F0621B730B840BE2
:10054000BA0BEE1F88F7E0950895E89409C097FB71
:100550003EF490958095709561957F4F8F4F9F4F9A
:100560009923A9F0F92F96E9BB279395F6958795DE
:1005700077956795B795F111F8CFFAF4BB0F11F4A1
:1005800060FF1BC06F5F7F4F8F4F9F4F16C0882348
:1005900011F096E911C0772321F09EE8872F762F7E
:1005A00005C0662371F096E8862F70E060E02AF0BF
:1005B0009A95660F771F881FDAF7880F96958795AB
:1005C00097F9089597F99F6780E870E060E00895D3
:1005D0009FEF80EC089500240A941616170618065B
:1005E0000906089500240A94121613061406050637
:1005F0000895092E0394000C11F4882352F0BB0FC8
:1006000040F4BF2B11F460FF04C06F5F7F4F8F4F2A
:100610009F4F089557FD9058440F551F59F05F3F65
:1006200071F04795880F97FB991F61F09F3F79F014
:1006300087950895121613061406551FF2CF469596
:10064000F1DF08C0161617061806991FF1CF869518
:100650007105610508940895E894BB2766277727FC
:10066000CB0197F90895EF920F931F93CF93DF93E8
:10067000E80147FD02C034E001C034E1042E000C63
:10068000550B57FF03C0519541955109E32E022F99
:10069000242FAE010E949E03CE01DF91CF911F91C6
:1006A0000F91EF900895FC0188279927E8942191F4
:1006B0002032E9F3293010F02E30C8F32B3241F00C
:1006C0002D3239F4689404C00E947C03820F911D7E
:1006D000219120532A30C0F31EF4909581959F4FAD
:1006E0000895BB274A3031F4992322F4BDE2909556
:1006F00081959F4F0C9485037AE0979F902D879F5B
:10070000802D910D11240895BB27FB015527AA27A1
:10071000880F991FAA1FA41710F0A41B839550518E
:10072000B9F7A05DAA3308F0A95DA193009779F706
:10073000B111B1931192CB010C94D005A9E0B0E0B6
:10074000E4EAF3E00C94E6056A01122FB02E2BE3E5
:10075000201720F0FF24F394F00E02C02CE3F22EB9
:100760000F2D27E0AE014F5F5F4F0E94F804BC01E0
:100770004981842F8970813031F0E1FC06C0E0FEB0
:1007800006C090E205C09DE203C09BE201C090E07C
:100790005E2D507143FF3CC0911102C083E001C047
:1007A00084E0811718F4212F281B01C020E051118B
:1007B0000BC0F601822F30E2882319F0319381506B
:1007C000FBCFC20ED11C20E0992329F0D6019C93C7
:1007D000F60131966F01C6010396E2FE0AC03EE4BF
:1007E000D6013C9341E411964C93119712963C9399
:1007F00006C03EE6F601308341E641833283FC01C8
:10080000322F40E2332309F442C041933150FACFF2
:1008100042FF44C0911102C083E001C084E081170F
:1008200018F4212F281B01C020E051110BC0F60144
:10083000822F30E2882319F031938150FBCFC20E12
:10084000D11C20E0992329F0D6019C93F601319622
:100850006F01C6010396E2FE0BC039E4D6013C935A
:100860003EE411963C93119736E412963C9307C0F0
:1008700039E6F60130833EE6318336E63283FC0109
:10088000322F40E2332319F041933150FBCFFC016A
:10089000E20FF11D10828EEF9FEFA6C021E030E045
:1008A000911102C020E030E0161617061CF4FB017F
:1008B000319602C0E1E0F0E02E0F3F1FBB2021F097
:1008C000EB2DF0E0319602C0E0E0F0E02E0F3F1F8C
:1008D000E12FF0E02E173F071CF4121B212F01C05F
:1008E00020E08E2D887159F4F601822F30E28823A2
:1008F00019F031938150FBCFC20ED11C20E0992317
:1009000029F0D6019C93F60131966F0151110BC06D
:10091000F601822F90E3882319F091938150FBCF49
:10092000C20ED11C20E00F2D060F9A81342F30719A
:1009300044FF03C0913309F40150101624F4093028
:1009400018F008E001C001E0AB0177FF02C040E011
:1009500050E0FB01E41BF50BA1E0B0E0AC0FBD1FC4
:10096000EA0FFB1F8EE2A82E4B01801A91080B2D77
:1009700010E01195019511094F3FBFEF5B0721F47E
:10098000D601AC9211966D01641775072CF0841690
:10099000950614F4818101C080E3415051093196DC
:1009A000D60111967D014017510724F0D6018C9392
:1009B0006701E2CF6417750739F4963320F4953355
:1009C00019F4311101C081E3F6018083F701822F10
:1009D00090E2882319F091938150FBCFF701E20F49
:1009E000F11D108280E090E02996ECE00C94020664
:1009F000283008F027E03327DA01990F311D87FDF1
:100A0000916000966105710539F432602E5F3D9367
:100A100030E32A95E1F708959F3F30F08038710563
:100A2000610509F03C5F3C5F3D93913008F08068C0
:100A3000911DDF93CF931F930F93FF92EF92192F86
:100A4000987F9695E92F96959695E90FFF27EA519D
:100A5000FF4F99273327EE24FF24A701E7010590D4
:100A60000894079428F4360FE71EF81E491F511DFD
:100A7000660F771F881F991F0694A1F705900794AA
:100A800028F4E70EF81E491F561FC11D770F881F57
:100A9000991F661F0694A1F70590079428F4F80E95
:100AA000491F561FC71FD11D880F991F661F771F2B
:100AB0000694A1F70590079420F4490F561FC71F0D
:100AC000D81F990F661F771F881F0694A9F7849176
:100AD0001095177041F0D695C79557954795F7949F
:100AE000E7941A95C1F7ECE8F0E068941590159139
:100AF00035916591959105907FE27395E118F10A22
:100B0000430B560BC90BD009C0F7E10CF11E431F74
:100B1000561FC91FD01D7EF4703311F48A95E6CF9D
:100B2000E894015030F0080F0AF40027021708F487
:100B3000202F2395022F7A3328F079E37D932A958D
:100B4000E9F710C07D932A9589F6069497956795E5
:100B5000379517951794E118F10A430B560BC90BFB
:100B6000D00998F023957E9173957A3308F070E35D
:100B70007C932013B8F77E9170617D9330F083955C
:100B800071E37D9370E32A95E1F71124EF90FF90D4
:100B90000F911F91CF91DF91992787FD909508952F
:100BA000DC01FC01672F71917723E1F7329704C0D4
:100BB0007C916D9370836291AE17BF07C8F308955F
:100BC0002F923F924F925F926F927F928F929F925D
:100BD000AF92BF92CF92DF92EF92FF920F931F934B
:100BE000CF93DF93CDB7DEB7CA1BDB0B0FB6F894FC
:100BF000DEBF0FBECDBF09942A88398848885F843C
:100C00006E847D848C849B84AA84B984C884DF80AC
:100C1000EE80FD800C811B81AA81B981CE0FD11D90
:100C20000FB6F894DEBF0FBECDBFED010895F89466
:020C3000FFCFF4
:100C32000D0A4156522043414C43554C41544F52A8
:100C42000D0A002031203D204164646974696F6E91
:100C52000D0A2032203D20537562737472616374F1
:100C6200696E0D0A2033203D204D756C7469706CDD
:100C720069636174696F6E0D0A2034203D204469F6
:100C8200766973696F6E0D0A0041203D203F0D0A9F
:100C92000042203D203F0D0A00526573756C74734B
:100CA200203A00506C6561736520456E7465722050
:0E0CB20063686F69636520616761696E0000A9
:00000001FF
