:100000000C9446000C9463000C9463000C94630001
:100010000C9463000C9463000C9463000C946300D4
:100020000C9463000C9463000C9463000C946300C4
:100030000C94C9000C9463000C9463000C9463004E
:100040000C9463000C9463000C9463000C946300A4
:100050000C9463000C9463000C9463000C94630094
:100060000C9463000C9463000C9463000C94630084
:100070000C9463000C9463000C9463000C94630074
:100080000C9463000C9463000C94630011241FBE55
:10009000CFEFD0E1DEBFCDBF11E0A0E0B1E0EAE2FA
:1000A000F2E002C005900D92AC31B107D9F721E022
:1000B000ACE1B1E001C01D92A434B207E1F70E94A7
:1000C000E5000C9413010C940000DA9A8FE193E0A0
:1000D0000197F1F700C00000DA988FE193E00197F3
:1000E000F1F700C000000895CF93C82F807F8BBB2D
:1000F000D8980E946500C295C07FCBBBD898CF919D
:100100000C9465008FEF8ABB88E20E947400D89837
:100110000C946500CF93C82F807F8BBBD89A0E9428
:100120006500C295C07FCBBBD89ACF910C94650077
:10013000CF93DF93EC018991882319F00E948A0004
:10014000FACFDF91CF910895811103C0862F806887
:1001500004C0813021F4862F806C0C9474000895C3
:100160003E9A86B1876886B90895369A349BFECF49
:1001700084B195B1089589EF90E09BBD8ABD1DBC07
:100180001CBC8EB58B608EBD87B7806187BF7894AD
:1001900008951F920F920FB60F9211248F939F9381
:1001A000F89415BA1DBC1CBC80911C0190911D01D6
:1001B000019690931D0180931C0178949F918F91DB
:1001C0000F900FBE0F901F9018958FEF84BB85BBCB
:1001D000D39A0E9482000E94B0000E94BB0084E17A
:1001E0000E94740086E00E9474008CE00E947400FB
:1001F00081E00E94740080E80E94740080E091E039
:100200000E94980080EC0E9474008DE091E00E94B2
:1002100098002FEF83ED90E3215080409040E1F76C
:0A02200000C00000FFCFF894FFCFEC
:10022A00416C6C2054484520424553540046726D37
:0C023A00204A4147414E4E41544800000C
:00000001FF
